:020000040000FA
:10000000342BFF3FFF3FFF3FFF00030E8301031729
:10001000A7000A08A6008A018B1003130710031714
:10002000A301A401A101A2018B1026088A00270EBA
:100030008300FF0E7F0E0900213083120313FD00A1
:10004000FD0B202808000000000008000F3083127C
:100050000313FC004730FD00FD0B2C28FC0B2C2863
:100060000000000008007B15FB1F3D280130F30055
:10007000F201F101F001FA0DF20CFF300800FA1F55
:10008000F2130030080083120317AE1B4A28031333
:1000900008134C280313081703172E1B52280313A9
:1000A00088125428031388160317AE1A5A2803130C
:1000B00008125C280313081603172E1A622803136C
:1000C0008811642803138815031725186A28031359
:1000D00088146C28031388100815232008110317AF
:1000E000AE1975280313081377280313081703178D
:1000F0002E197D28031388127F28031388160317EF
:10010000AE1885280313081287280313081603174F
:100110002E188D28031388118F28031388150317B1
:100120002518952803138814972803138810081599
:10013000232008110317251C9F282620A0281C20F7
:100140000800F201F101F001F801F30100300800AC
:10015000831603136F088A006E0882000800831656
:1001600003139818B5280000AF28831203172D0831
:100170000313990008000E3083120313FD00FD0BDA
:10018000BF2800000800A0017208031DD8287108CC
:10019000F2007008F100F001A0157208031DD828C4
:1001A0007108F200F101A011201672080319E62867
:1001B0002008F302031D031CEA280310F21BEE289B
:1001C000F00DF10DF20DF30BDE28EA280130FC00F2
:1001D000A120F1280230FC003320F1280430FC007B
:1001E0003F200800FB14FB1FFC28FF30F300F20047
:1001F000F100F000FA0DF20CFF3008008312031337
:10020000F801F9011030FC00710DF80DF90D7408BA
:10021000F8027508031C750FF902031816297408F3
:10022000F80775080318750FF9070310F00DF10DA5
:10023000FC0B042908008312031725102D08AE00BB
:1002400043200317251408007B14FB1F2F29F201FC
:10025000FA1FFF30F200F100F000FA0DF20CFF304F
:10026000080083120317AA01280884000008A900C7
:100270002908003A031947292908AD00AF200317C0
:10028000AA0A2A08280784000008A90038290800BB
:100290005A29803083120317A8006D29C030A800A6
:1002A0006D299430A8006D29D430A8006D298030C4
:1002B000A8006D29831203172808013A0319492958
:1002C0002808023A03194E292808033A031951292C
:1002D0002808043A0319542957292903F00028084B
:1002E000F0077008A8007008AE004320031725101F
:1002F000AB012B082A0784000008031987292B0863
:100300002A0784000008AD001B21AB0A79292514B7
:100310000800831203137008F8007108F000F1015F
:10032000F201F301FB01FC019630F300FA017008C1
:10033000F1007808F000F801F201C32008008312F0
:100340000313FB0173080319DC297208FA00F21782
:100350008E30F302F31FDF29F309F30A083073022A
:10036000031CC229F300F10D7208F100F2010830FC
:100370007302031CC229F300F10DF1017308031D80
:100380000310CA2973080319CA290310F20CF10CCF
:10039000F30BC5297B1B711CD429031CD429F10A3A
:1003A0000319F20AF21BEB29FA1FEE29F209F109EF
:1003B000F10A0319F20AEE29F201F101EE297B1488
:1003C000FB1FF129F201FA1FF129FF30F200F100C1
:1003D000FA0DF20CF1290130FC00F3290030FC0089
:1003E000F329FF30FC00FC080319F72924217108C8
:1003F000F0007208F100080083120313FB01730878
:10040000031D77080319532A72087606FA00770845
:10041000F3077E30031C102AF3020318562A132A0E
:10042000F302031C592A7208F8007108FC007008D6
:10043000FD00F817F6170310F201F101F001183072
:10044000A0007D1C2D2A7408F00775080318750F8D
:10045000F10776080318760FF207F20CF10CF00C96
:10046000F80CFC0CFD0C0310A00B212AF21B3D2AFA
:10047000F80DF00DF10DF20DF3037B1B701C4F2AEC
:10048000F81F4F2AF00A0319F10A0319F20A031D93
:100490004F2AF20CF10CF00CF30A0319562AFA1F3A
:1004A000F21300305B2A0130A1205B2A0230F220D7
:1004B0005B2A0430332000000800A8208A110A12A9
:1004C0008000840AEE0A0319EF0AF003031D5D2A77
:1004D0000800831603130811881088110812881267
:1004E0000813831208118810081388120812881143
:1004F00026202620262008168815081523200811F6
:10050000262008152320081126200815232008116D
:1005100026208811081523200811262008152320DD
:10052000081108120817081523200811262008139F
:100530008815081523200811881108152320081193
:1005400026200815232008118815081523200811D6
:100550002620881108152320081108178816081668
:1005600088150815232008112620031725140800D4
:10057000831203139F01C0309F045309F0007008D9
:1005800083169F051F179F17831203172808F00073
:10059000F00D7010F00D7010F00D70107008031356
:1005A0009F041F14BB201F151F1DD82A0000D42A2A
:1005B0001F101E08F100F00183161E08F004003021
:1005C000F104080083120317AB0105302B02031856
:1005D000F02A2B082A07840020308000AB0AE52A85
:1005E0002B082A0784008001AB032B082A07AC00E4
:1005F0000A30F400F5012808F0002908F100FE2077
:100600007808F0007908F1003030F00703172C0863
:100610008400700880000A30F400F5012808F0001A
:100620002908F100FE2070080317A8007108A9002E
:1006300000307106031D1E2B00307006031D212B98
:10064000232BAB03F52A080083160313981690306A
:100650008312980083168717071383128C1E332B7F
:100660001A08F0002D2B0800B02769220C30AE00CC
:10067000432001300317AE0043200230FB0004305A
:10068000FC00BA30FD00FD0B432BFC0B432BFB0B96
:10069000432B0000333083169900181524230130B2
:1006A0008316860010308700071506140B168B176B
:1006B00000308B008312871207100317A301A401D7
:1006C000A101A2010317A801B82289214830F40032
:1006D000E130F5007A30F6007D30F700FC219F21F3
:1006E000700803179F007108A00070088316031399
:1006F000E8007108E900700883120317A800710868
:10070000A9001030AA00E2220230A8000130A9009E
:100710002130AA0048210230A8000530A90010307D
:10072000AA0048210230A8000A30A9002630AA00F9
:1007300048210230FB000430FC00BA30FD00FD0B04
:100740009F2BFC0B9F2BFB0B9F2B00000130A80065
:10075000B8227008EC007108ED007008EA0071081A
:10076000EB008030023AF200803071067202031D05
:10077000BB2B7008583C0318C52B83120317A30A20
:100780000319A40AA101A201CA2B83120317A10A0B
:100790000319A20A8030F000803022067002031D87
:1007A000D32B2108283C0318DA2BA301A40103133F
:1007B000A801A9018030F0008030031724067002E0
:1007C000031DE42B2308323C0318E52C00302406DB
:1007D000031DEC2B33302306031DCC2C2A30A8003C
:1007E00031210230FB000430FC00BA30FD00FD0B6B
:1007F000F72BFC0BF72BFB0BF72B00000D30AD009C
:10080000AF200230FB000430FC00BA30FD00FD0BCD
:10081000072CFC0B072CFB0B072C0000AC3003173C
:10082000A80031210230FB000430FC00BA30FD008A
:10083000FD0B182CFC0B182CFB0B182C00000D309A
:10084000AD00AF200330FB000830FC007730FD0026
:10085000FD0B282CFC0B282CFB0B282C66300317D7
:10086000A80031210330FB000830FC007730FD0088
:10087000FD0B382CFC0B382CFB0B382C0D30AD004D
:10088000AF200230FB000430FC00BA30FD00FD0B4D
:10089000472CFC0B472CFB0B472C0000A030031708
:1008A000A80031210330FB000830FC007730FD0048
:1008B000FD0B582CFC0B582CFB0B582C0D30AD00AD
:1008C000AF200230FB000430FC00BA30FD00FD0B0D
:1008D000672CFC0B672CFB0B672C0000B130031757
:1008E000A80031210330FB000830FC007730FD0008
:1008F000FD0B782CFC0B782CFB0B782C0D30AD000D
:10090000AF200330FB000830FC007730FD00FD0B0A
:10091000872CFC0B872CFB0B872CDC300317A800E3
:1009200031210330FB000830FC007730FD00FD0B67
:10093000972CFC0B972CFB0B972C0D30AD00AF20A8
:100940000330FB000830FC007730FD00FD0BA62CC7
:10095000FC0BA62CFB0BA62CC6300317A8003121DC
:100960000530FB000F30FC00F130FD00FD0BB62C14
:10097000FC0BB62CFB0BB62C0D30AD00AF200230BB
:10098000FB000430FC00BA30FD00FD0BC52CFC0B55
:10099000C52CFB0BC52C0000031307142930FB00EA
:1009A0009630FC007F30FD00FD0BD42CFC0BD42CCA
:1009B000FB0BD42C071034300317A3000030A40025
:1009C00001300313A8000030A9000313071D102DE8
:1009D000063086008230FC00DD30FD00FD0BEE2C81
:1009E000FC0BEE2C000000000C3086000330FB00F6
:1009F0000830FC007730FD00FD0BFC2CFC0BFC2CC0
:100A0000FB0BFC2C183086008230FC00DD30FD0032
:100A1000FD0B082DFC0B082D000000001230860095
:100A2000071E042E003083164506031D192D0030C5
:100A30004406031DFC2D2A3083120317A800312120
:100A40000230FB000430FC00BA30FD00FD0B262D07
:100A5000FC0B262DFB0B262D00000D30AD00AF202A
:100A60000230FB000430FC00BA30FD00FD0B362DD7
:100A7000FC0B362DFB0B362D0000AC300317A80005
:100A800031210230FB000430FC00BA30FD00FD0BC8
:100A9000472DFC0B472DFB0B472D00000D30AD0003
:100AA000AF200330FB000830FC007730FD00FD0B69
:100AB000572DFC0B572DFB0B572D66300317A80045
:100AC00031210330FB000830FC007730FD00FD0BC6
:100AD000672DFC0B672DFB0B672D0D30AD00AF2094
:100AE0000230FB000430FC00BA30FD00FD0B762D17
:100AF000FC0B762DFB0B762D0000A0300317A80011
:100B000031210330FB000830FC007730FD00FD0B85
:100B1000872DFC0B872DFB0B872D0D30AD00AF20F3
:100B20000230FB000430FC00BA30FD00FD0B962DB6
:100B3000FC0B962DFB0B962D0000B1300317A8007F
:100B400031210330FB000830FC007730FD00FD0B45
:100B5000A72DFC0BA72DFB0BA72D0D30AD00AF2053
:100B60000330FB000830FC007730FD00FD0BB62D94
:100B7000FC0BB62DFB0BB62DDC300317A800312182
:100B80000330FB000830FC007730FD00FD0BC62D64
:100B9000FC0BC62DFB0BC62D0D30AD00AF20033076
:100BA000FB000830FC007730FD00FD0BD52DFC0B61
:100BB000D52DFB0BD52D3C300317A8003121053076
:100BC000FB000F30FC00F130FD00FD0BE52DFC0BB0
:100BD000E52DFB0BE52D0D30AD00AF200230FB0005
:100BE0000430FC00BA30FD00FD0BF42DFC0BF42D9D
:100BF000FB0BF42D00008716831287160130831635
:100C0000C4000030C500092E8316C401C50183123B
:100C100087128312871D042F3A083B04031DEF2E11
:100C20002A300317A80031210230FB000430FC00F9
:100C3000BA30FD00FD0B1A2EFC0B1A2EFB0B1A2EE0
:100C400000000D30AD00AF200230FB000430FC008E
:100C5000BA30FD00FD0B2A2EFC0B2A2EFB0B2A2E90
:100C60000000AC300317A80031210230FB00043033
:100C7000FC00BA30FD00FD0B3B2EFC0B3B2EFB0BAA
:100C80003B2E00000D30AD00AF200330FB000830DC
:100C9000FC007730FD00FD0B4B2EFC0B4B2EFB0BAD
:100CA0004B2E66300317A80031210330FB000830BB
:100CB000FC007730FD00FD0B5B2EFC0B5B2EFB0B6D
:100CC0005B2E0D30AD00AF200230FB000430FC0085
:100CD000BA30FD00FD0B6A2EFC0B6A2EFB0B6A2E50
:100CE0000000A0300317A80031210330FB000830BA
:100CF000FC007730FD00FD0B7B2EFC0B7B2EFB0BED
:100D00007B2E0D30AD00AF200230FB000430FC0024
:100D1000BA30FD00FD0B8A2EFC0B8A2EFB0B8A2EAF
:100D20000000B1300317A80031210330FB00083068
:100D3000FC007730FD00FD0B9B2EFC0B9B2EFB0B6C
:100D40009B2E0D30AD00AF200330FB000830FC00BF
:100D50007730FD00FD0BAA2EFC0BAA2EFB0BAA2E52
:100D6000DC300317A80031210330FB000830FC0001
:100D70007730FD00FD0BBA2EFC0BBA2EFB0BBA2E02
:100D80000D30AD00AF200330FB000830FC007730A1
:100D9000FD00FD0BC92EFC0BC92EFB0BC92E2D30FF
:100DA0000317A80031210530FB000F30FC00F130A3
:100DB000FD00FD0BD92EFC0BD92EFB0BD92E0D30CF
:100DC000AD00AF200230FB000430FC00BA30FD0063
:100DD000FD0BE82EFC0BE82EFB0BE82E000001308B
:100DE0000317A8000130A9004830AA0048210230AA
:100DF000FB008630FC009930FD00FD0BFD2EFC0B46
:100E0000FD2EFB0BFD2E0C2F03170130A800013027
:100E1000A9005430AA00482100300313871901307B
:100E2000BA00BB01622B132FFF3FFF3FFF3FFF3F85
:100E3000FF3F743465346D3470340034433400340F
:100E400000340034413454340034493420346E3496
:100E500065346534643420347734613474346534F3
:100E6000723400340034003466346F346F346434C8
:100E7000203470346C346534613473346534003438
:100E80004E346534653464342034573461347434FA
:100E90006534723400340F3420342034203420344C
:100EA00020342034203420342034203420342034A2
:100EB000203420342034203420340034413454345D
:100EC000453430340034413454342B3443345334B7
:100ED0004D3450343D34313437342C34313436349D
:100EE00037342C3430342C34303400340034003473
:100EF00041346C34613472346D34203453346F3483
:100F00006D3465346F346E34653420346934733431
:100F1000203468346534723465340034323431340A
:100F2000363439343534313432343834303434347E
:100F300039340034413454342B344334533443343F
:100F400053343D34473453344D34003441345434F5
:100F50002B3443344D34473446343D34313400343B
:100F600021308400453083120313F00019308316BA
:100F7000EE000730EF005D22A03084000C308312B9
:100F8000F0009A308316EE000730EF005D226630E5
:100F900084000A308312F000A6308316EE0007307A
:100FA000EF005D22AC3084003C308312F0005E30F4
:100FB0008316EE000730EF005D220800FF3FFF3F81
:100FC000FF3FFF3FFF3FFF3FFF3FFF3FFF3FFF3F31
:100FD000FF3FFF3FFF3FFF3FFF3FFF3FFF3FFF3F21
:100FE000FF3FFF3FFF3FFF3FFF3FFF3FFF3FFF3F11
:100FF000FF3FFF3FFF3FFF3FFF3FFF3FFF3FFF3F01
:04400E007A3FFF3FB7
:00000001FF
